{
  "contractName": "CryptoLottery",
  "abi": [
    {
      "inputs": [],
      "stateMutability": "nonpayable",
      "type": "constructor"
    },
    {
      "inputs": [],
      "name": "entryFee",
      "outputs": [
        {
          "internalType": "uint256",
          "name": "",
          "type": "uint256"
        }
      ],
      "stateMutability": "view",
      "type": "function",
      "constant": true
    },
    {
      "inputs": [],
      "name": "manager",
      "outputs": [
        {
          "internalType": "address",
          "name": "",
          "type": "address"
        }
      ],
      "stateMutability": "view",
      "type": "function",
      "constant": true
    },
    {
      "inputs": [
        {
          "internalType": "uint256",
          "name": "",
          "type": "uint256"
        }
      ],
      "name": "participants",
      "outputs": [
        {
          "internalType": "address payable",
          "name": "",
          "type": "address"
        }
      ],
      "stateMutability": "view",
      "type": "function",
      "constant": true
    },
    {
      "inputs": [
        {
          "internalType": "uint256",
          "name": "amt",
          "type": "uint256"
        }
      ],
      "name": "setEntry",
      "outputs": [],
      "stateMutability": "nonpayable",
      "type": "function"
    },
    {
      "inputs": [],
      "name": "newEntry",
      "outputs": [],
      "stateMutability": "payable",
      "type": "function",
      "payable": true
    },
    {
      "inputs": [],
      "name": "random",
      "outputs": [
        {
          "internalType": "uint256",
          "name": "",
          "type": "uint256"
        }
      ],
      "stateMutability": "view",
      "type": "function",
      "constant": true
    },
    {
      "inputs": [],
      "name": "drawWinner",
      "outputs": [],
      "stateMutability": "nonpayable",
      "type": "function"
    },
    {
      "inputs": [
        {
          "internalType": "address payable",
          "name": "_winner",
          "type": "address"
        }
      ],
      "name": "payWinner",
      "outputs": [],
      "stateMutability": "nonpayable",
      "type": "function"
    }
  ],
  "bytecode": "0x608060405234801561001057600080fd5b50336000806101000a81548173ffffffffffffffffffffffffffffffffffffffff021916908373ffffffffffffffffffffffffffffffffffffffff160217905550610b39806100606000396000f3fe60806040526004361061007b5760003560e01c8063481c6a751161004e578063481c6a751461011b5780635ec01e4d1461014657806370fdb31414610171578063b2185bb11461019a5761007b565b8063072ea61c1461008057806313db9346146100ab57806319b09f9b146100b557806335c1d349146100de575b600080fd5b34801561008c57600080fd5b506100956101b1565b6040516100a2919061067a565b60405180910390f35b6100b36101b7565b005b3480156100c157600080fd5b506100dc60048036038101906100d791906106f8565b610260565b005b3480156100ea57600080fd5b5061010560048036038101906101009190610751565b61032f565b604051610112919061078d565b60405180910390f35b34801561012757600080fd5b5061013061036e565b60405161013d91906107c9565b60405180910390f35b34801561015257600080fd5b5061015b610392565b604051610168919061067a565b60405180910390f35b34801561017d57600080fd5b5061019860048036038101906101939190610751565b6103d8565b005b3480156101a657600080fd5b506101af610470565b005b60015481565b60015434116101fb576040517f08c379a00000000000000000000000000000000000000000000000000000000081526004016101f290610841565b60405180910390fd5b6002339080600181540180825580915050600190039060005260206000200160009091909190916101000a81548173ffffffffffffffffffffffffffffffffffffffff021916908373ffffffffffffffffffffffffffffffffffffffff160217905550565b60008054906101000a900473ffffffffffffffffffffffffffffffffffffffff1673ffffffffffffffffffffffffffffffffffffffff163373ffffffffffffffffffffffffffffffffffffffff16146102ee576040517f08c379a00000000000000000000000000000000000000000000000000000000081526004016102e5906108ad565b60405180910390fd5b8073ffffffffffffffffffffffffffffffffffffffff166108fc479081150290604051600060405180830381858888f1935050505061032c57600080fd5b50565b6002818154811061033f57600080fd5b906000526020600020016000915054906101000a900473ffffffffffffffffffffffffffffffffffffffff1681565b60008054906101000a900473ffffffffffffffffffffffffffffffffffffffff1681565b6000600280549050444260026040516020016103b093929190610a0c565b6040516020818303038152906040528051906020012060001c6103d39190610a74565b905090565b60008054906101000a900473ffffffffffffffffffffffffffffffffffffffff1673ffffffffffffffffffffffffffffffffffffffff163373ffffffffffffffffffffffffffffffffffffffff1614610466576040517f08c379a000000000000000000000000000000000000000000000000000000000815260040161045d906108ad565b60405180910390fd5b8060018190555050565b60008054906101000a900473ffffffffffffffffffffffffffffffffffffffff1673ffffffffffffffffffffffffffffffffffffffff163373ffffffffffffffffffffffffffffffffffffffff16146104fe576040517f08c379a00000000000000000000000000000000000000000000000000000000081526004016104f5906108ad565b60405180910390fd5b6000610508610392565b90506000600282815481106105205761051f610aa5565b5b9060005260206000200160009054906101000a900473ffffffffffffffffffffffffffffffffffffffff16905061055681610260565b600067ffffffffffffffff81111561057157610570610ad4565b5b60405190808252806020026020018201604052801561059f5781602001602082028036833780820191505090505b50600290805190602001906105b59291906105ba565b505050565b828054828255906000526020600020908101928215610633579160200282015b828111156106325782518260006101000a81548173ffffffffffffffffffffffffffffffffffffffff021916908373ffffffffffffffffffffffffffffffffffffffff160217905550916020019190600101906105da565b5b5090506106409190610644565b5090565b5b8082111561065d576000816000905550600101610645565b5090565b6000819050919050565b61067481610661565b82525050565b600060208201905061068f600083018461066b565b92915050565b600080fd5b600073ffffffffffffffffffffffffffffffffffffffff82169050919050565b60006106c58261069a565b9050919050565b6106d5816106ba565b81146106e057600080fd5b50565b6000813590506106f2816106cc565b92915050565b60006020828403121561070e5761070d610695565b5b600061071c848285016106e3565b91505092915050565b61072e81610661565b811461073957600080fd5b50565b60008135905061074b81610725565b92915050565b60006020828403121561076757610766610695565b5b60006107758482850161073c565b91505092915050565b610787816106ba565b82525050565b60006020820190506107a2600083018461077e565b92915050565b60006107b38261069a565b9050919050565b6107c3816107a8565b82525050565b60006020820190506107de60008301846107ba565b92915050565b600082825260208201905092915050565b7f4e6f7420656e6f75676820666f72206576656e203120656e7472790000000000600082015250565b600061082b601b836107e4565b9150610836826107f5565b602082019050919050565b6000602082019050818103600083015261085a8161081e565b9050919050565b7f596f7520617265206e6f7420746865206d616e61676572000000000000000000600082015250565b60006108976017836107e4565b91506108a282610861565b602082019050919050565b600060208201905081810360008301526108c68161088a565b9050919050565b6000819050919050565b6108e86108e382610661565b6108cd565b82525050565b600081549050919050565b600081905092915050565b60008190508160005260206000209050919050565b610922816106ba565b82525050565b60006109348383610919565b60208301905092915050565b60008160001c9050919050565b600073ffffffffffffffffffffffffffffffffffffffff82169050919050565b600061098061097b83610940565b61094d565b9050919050565b6000610993825461096d565b9050919050565b6000600182019050919050565b60006109b2826108ee565b6109bc81856108f9565b93506109c783610904565b8060005b838110156109ff576109dc82610987565b6109e68882610928565b97506109f18361099a565b9250506001810190506109cb565b5085935050505092915050565b6000610a1882866108d7565b602082019150610a2882856108d7565b602082019150610a3882846109a7565b9150819050949350505050565b7f4e487b7100000000000000000000000000000000000000000000000000000000600052601260045260246000fd5b6000610a7f82610661565b9150610a8a83610661565b925082610a9a57610a99610a45565b5b828206905092915050565b7f4e487b7100000000000000000000000000000000000000000000000000000000600052603260045260246000fd5b7f4e487b7100000000000000000000000000000000000000000000000000000000600052604160045260246000fdfea2646970667358221220692038c58194f997c82d05cbe7a13cd1fe32835a43968b49e82cae8a9f4aa8d964736f6c63430008110033",
  "immutableReferences": {},
  "source": "// SPDX-License-Identifier: MIT\npragma solidity 0.8.17;\n\ncontract CryptoLottery {\n  address public manager;\n  uint public entryFee;\n  address payable[] public participants;\n\n\n  constructor() {\n    manager = msg.sender;\n  }\n\n  modifier onlyManager() {\n        require(msg.sender == manager, \"You are not the manager\");\n        _;\n  }\n\n  function setEntry(uint amt) public onlyManager{\n    entryFee = amt;\n  }\n\n  modifier validEntry() {\n    require(msg.value > entryFee, \"Not enough for even 1 entry\");\n    _;\n  }\n  function newEntry() public payable validEntry{\n    participants.push(payable(msg.sender));\n  }\n\n\n  function random() public view returns(uint){\n        return uint(keccak256(abi.encodePacked(block.difficulty, block.timestamp, participants)))%participants.length;\n    }\n\n  function drawWinner() public onlyManager{\n    uint rand = random();\n    address payable winner = participants[rand];\n    payWinner(winner);\n    participants = new address payable[](0);\n  }\n\n  function payWinner(address payable _winner) public onlyManager{\n    require(_winner.send(address(this).balance));\n  }\n}",
  "sourcePath": "/Users/jessegreenough/Documents/Personal_Coding_2022_2023/Learning/Solidity/Crypto_Lottery/Lottery_Contract/contracts/CryptoLottery.sol",
  "compiler": {
    "name": "solc",
    "version": "0.8.17+commit.8df45f5f.Emscripten.clang"
  },
  "schemaVersion": "3.4.11",
  "updatedAt": "2023-01-11T09:51:52.372Z",
  "networkType": "ethereum",
  "devdoc": {
    "kind": "dev",
    "methods": {},
    "version": 1
  },
  "userdoc": {
    "kind": "user",
    "methods": {},
    "version": 1
  }
}