{
  "contractName": "CryptoLottery",
  "abi": [
    {
      "inputs": [],
      "stateMutability": "nonpayable",
      "type": "constructor"
    },
    {
      "anonymous": false,
      "inputs": [
        {
          "indexed": false,
          "internalType": "address",
          "name": "_winner",
          "type": "address"
        }
      ],
      "name": "WinningAccount",
      "type": "event"
    },
    {
      "inputs": [],
      "name": "entryFee",
      "outputs": [
        {
          "internalType": "uint256",
          "name": "",
          "type": "uint256"
        }
      ],
      "stateMutability": "view",
      "type": "function"
    },
    {
      "inputs": [],
      "name": "manager",
      "outputs": [
        {
          "internalType": "address",
          "name": "",
          "type": "address"
        }
      ],
      "stateMutability": "view",
      "type": "function"
    },
    {
      "inputs": [
        {
          "internalType": "uint256",
          "name": "",
          "type": "uint256"
        }
      ],
      "name": "participants",
      "outputs": [
        {
          "internalType": "address payable",
          "name": "",
          "type": "address"
        }
      ],
      "stateMutability": "view",
      "type": "function"
    },
    {
      "inputs": [],
      "name": "setEntry",
      "outputs": [],
      "stateMutability": "payable",
      "type": "function"
    },
    {
      "inputs": [],
      "name": "drawWinner",
      "outputs": [],
      "stateMutability": "nonpayable",
      "type": "function"
    },
    {
      "inputs": [
        {
          "internalType": "address payable",
          "name": "_winner",
          "type": "address"
        }
      ],
      "name": "payWinner",
      "outputs": [],
      "stateMutability": "nonpayable",
      "type": "function"
    },
    {
      "inputs": [],
      "name": "newEntry",
      "outputs": [],
      "stateMutability": "payable",
      "type": "function"
    },
    {
      "inputs": [],
      "name": "random",
      "outputs": [
        {
          "internalType": "uint256",
          "name": "",
          "type": "uint256"
        }
      ],
      "stateMutability": "view",
      "type": "function"
    },
    {
      "inputs": [],
      "name": "getParticipants",
      "outputs": [
        {
          "internalType": "uint256",
          "name": "",
          "type": "uint256"
        }
      ],
      "stateMutability": "view",
      "type": "function"
    }
  ],
  "bytecode": "0x6080604052600060015534801561001557600080fd5b50336000806101000a81548173ffffffffffffffffffffffffffffffffffffffff021916908373ffffffffffffffffffffffffffffffffffffffff160217905550610fb1806100656000396000f3fe6080604052600436106100865760003560e01c8063481c6a7511610059578063481c6a75146101265780635aa68ac0146101515780635ec01e4d1461017c578063b2185bb1146101a7578063e537a2c8146101be57610086565b8063072ea61c1461008b57806313db9346146100b657806319b09f9b146100c057806335c1d349146100e9575b600080fd5b34801561009757600080fd5b506100a06101c8565b6040516100ad9190610840565b60405180910390f35b6100be6101ce565b005b3480156100cc57600080fd5b506100e760048036038101906100e291906108be565b6102f1565b005b3480156100f557600080fd5b50610110600480360381019061010b9190610917565b6103c0565b60405161011d9190610953565b60405180910390f35b34801561013257600080fd5b5061013b6103ff565b604051610148919061098f565b60405180910390f35b34801561015d57600080fd5b50610166610423565b6040516101739190610840565b60405180910390f35b34801561018857600080fd5b50610191610430565b60405161019e9190610840565b60405180910390f35b3480156101b357600080fd5b506101bc610476565b005b6101c66105f7565b005b60015481565b600060028054905011610216576040517f08c379a000000000000000000000000000000000000000000000000000000000815260040161020d90610a2d565b60405180910390fd5b600154341161025a576040517f08c379a000000000000000000000000000000000000000000000000000000000815260040161025190610a99565b60405180910390fd5b60006001543461026a9190610b17565b905060005b818110156102ed576002339080600181540180825580915050600190039060005260206000200160009091909190916101000a81548173ffffffffffffffffffffffffffffffffffffffff021916908373ffffffffffffffffffffffffffffffffffffffff16021790555080806102e590610b48565b91505061026f565b5050565b60008054906101000a900473ffffffffffffffffffffffffffffffffffffffff1673ffffffffffffffffffffffffffffffffffffffff163373ffffffffffffffffffffffffffffffffffffffff161461037f576040517f08c379a000000000000000000000000000000000000000000000000000000000815260040161037690610bdc565b60405180910390fd5b8073ffffffffffffffffffffffffffffffffffffffff166108fc479081150290604051600060405180830381858888f193505050506103bd57600080fd5b50565b600281815481106103d057600080fd5b906000526020600020016000915054906101000a900473ffffffffffffffffffffffffffffffffffffffff1681565b60008054906101000a900473ffffffffffffffffffffffffffffffffffffffff1681565b6000600280549050905090565b60006002805490504442600260405160200161044e93929190610d3b565b6040516020818303038152906040528051906020012060001c6104719190610d74565b905090565b60008054906101000a900473ffffffffffffffffffffffffffffffffffffffff1673ffffffffffffffffffffffffffffffffffffffff163373ffffffffffffffffffffffffffffffffffffffff1614610504576040517f08c379a00000000000000000000000000000000000000000000000000000000081526004016104fb90610bdc565b60405180910390fd5b600061050e610430565b905060006002828154811061052657610525610da5565b5b9060005260206000200160009054906101000a900473ffffffffffffffffffffffffffffffffffffffff1690507f7f1b18fa6302d29dbbd5decbd0dfc093e3f482992f0c7bfb6f2eb2a6851c1329816040516105829190610e33565b60405180910390a1610593816102f1565b600067ffffffffffffffff8111156105ae576105ad610e4e565b5b6040519080825280602002602001820160405280156105dc5781602001602082028036833780820191505090505b50600290805190602001906105f2929190610780565b505050565b60008054906101000a900473ffffffffffffffffffffffffffffffffffffffff1673ffffffffffffffffffffffffffffffffffffffff163373ffffffffffffffffffffffffffffffffffffffff1614610685576040517f08c379a000000000000000000000000000000000000000000000000000000000815260040161067c90610bdc565b60405180910390fd5b6000600154146106ca576040517f08c379a00000000000000000000000000000000000000000000000000000000081526004016106c190610eef565b60405180910390fd5b66038d7ea4c68000341015610714576040517f08c379a000000000000000000000000000000000000000000000000000000000815260040161070b90610f5b565b60405180910390fd5b346001819055506002339080600181540180825580915050600190039060005260206000200160009091909190916101000a81548173ffffffffffffffffffffffffffffffffffffffff021916908373ffffffffffffffffffffffffffffffffffffffff160217905550565b8280548282559060005260206000209081019282156107f9579160200282015b828111156107f85782518260006101000a81548173ffffffffffffffffffffffffffffffffffffffff021916908373ffffffffffffffffffffffffffffffffffffffff160217905550916020019190600101906107a0565b5b509050610806919061080a565b5090565b5b8082111561082357600081600090555060010161080b565b5090565b6000819050919050565b61083a81610827565b82525050565b60006020820190506108556000830184610831565b92915050565b600080fd5b600073ffffffffffffffffffffffffffffffffffffffff82169050919050565b600061088b82610860565b9050919050565b61089b81610880565b81146108a657600080fd5b50565b6000813590506108b881610892565b92915050565b6000602082840312156108d4576108d361085b565b5b60006108e2848285016108a9565b91505092915050565b6108f481610827565b81146108ff57600080fd5b50565b600081359050610911816108eb565b92915050565b60006020828403121561092d5761092c61085b565b5b600061093b84828501610902565b91505092915050565b61094d81610880565b82525050565b60006020820190506109686000830184610944565b92915050565b600061097982610860565b9050919050565b6109898161096e565b82525050565b60006020820190506109a46000830184610980565b92915050565b600082825260208201905092915050565b7f53657373696f6e206e6f74207374617274656420666f7220746865206e65787460008201527f20706f6f6c2e0000000000000000000000000000000000000000000000000000602082015250565b6000610a176026836109aa565b9150610a22826109bb565b604082019050919050565b60006020820190508181036000830152610a4681610a0a565b9050919050565b7f4e6f7420656e6f75676820666f72206576656e203120656e7472790000000000600082015250565b6000610a83601b836109aa565b9150610a8e82610a4d565b602082019050919050565b60006020820190508181036000830152610ab281610a76565b9050919050565b7f4e487b7100000000000000000000000000000000000000000000000000000000600052601260045260246000fd5b7f4e487b7100000000000000000000000000000000000000000000000000000000600052601160045260246000fd5b6000610b2282610827565b9150610b2d83610827565b925082610b3d57610b3c610ab9565b5b828204905092915050565b6000610b5382610827565b91507fffffffffffffffffffffffffffffffffffffffffffffffffffffffffffffffff8203610b8557610b84610ae8565b5b600182019050919050565b7f596f7520617265206e6f7420746865206d616e61676572000000000000000000600082015250565b6000610bc66017836109aa565b9150610bd182610b90565b602082019050919050565b60006020820190508181036000830152610bf581610bb9565b9050919050565b6000819050919050565b610c17610c1282610827565b610bfc565b82525050565b600081549050919050565b600081905092915050565b60008190508160005260206000209050919050565b610c5181610880565b82525050565b6000610c638383610c48565b60208301905092915050565b60008160001c9050919050565b600073ffffffffffffffffffffffffffffffffffffffff82169050919050565b6000610caf610caa83610c6f565b610c7c565b9050919050565b6000610cc28254610c9c565b9050919050565b6000600182019050919050565b6000610ce182610c1d565b610ceb8185610c28565b9350610cf683610c33565b8060005b83811015610d2e57610d0b82610cb6565b610d158882610c57565b9750610d2083610cc9565b925050600181019050610cfa565b5085935050505092915050565b6000610d478286610c06565b602082019150610d578285610c06565b602082019150610d678284610cd6565b9150819050949350505050565b6000610d7f82610827565b9150610d8a83610827565b925082610d9a57610d99610ab9565b5b828206905092915050565b7f4e487b7100000000000000000000000000000000000000000000000000000000600052603260045260246000fd5b6000819050919050565b6000610df9610df4610def84610860565b610dd4565b610860565b9050919050565b6000610e0b82610dde565b9050919050565b6000610e1d82610e00565b9050919050565b610e2d81610e12565b82525050565b6000602082019050610e486000830184610e24565b92915050565b7f4e487b7100000000000000000000000000000000000000000000000000000000600052604160045260246000fd5b7f43616e6e6f7420726573657420656e7472792066656520647572696e6720616e60008201527f206f70656e2073657373696f6e00000000000000000000000000000000000000602082015250565b6000610ed9602d836109aa565b9150610ee482610e7d565b604082019050919050565b60006020820190508181036000830152610f0881610ecc565b9050919050565b7f456e74727920466565206d757374206265206f76657220312066696e6e657900600082015250565b6000610f45601f836109aa565b9150610f5082610f0f565b602082019050919050565b60006020820190508181036000830152610f7481610f38565b905091905056fea26469706673582212206b8d1f9aef41d2973bfc4993b31a802962135886bf896dbabe908a764f830ce564736f6c63430008110033",
  "immutableReferences": {},
  "source": "// SPDX-License-Identifier: MIT\npragma solidity 0.8.17;\n\ncontract CryptoLottery {\n  event WinningAccount(address _winner);\n\n  address public manager;\n  uint public entryFee = 0;\n  address payable[] public participants;\n\n\n  constructor() {\n    manager = msg.sender;\n  }\n\n  // Manager Functions Set Pool, Pick Winner(random), and Pay Winner\n  modifier onlyManager() {\n        require(msg.sender == manager, \"You are not the manager\");\n        _;\n  }\n  function setEntry() public payable onlyManager{\n    require(entryFee==0, \"Cannot reset entry fee during an open session\");\n    require(msg.value>=1000000000000000, \"Entry Fee must be over 1 finney\");\n    entryFee = msg.value;\n    participants.push(payable(msg.sender));\n  }\n  function drawWinner() public onlyManager{\n    uint rand = random();\n    address payable winner = participants[rand];\n    emit WinningAccount(winner);\n    payWinner(winner);\n    participants = new address payable[](0);\n  }\n  function payWinner(address payable _winner) public onlyManager{\n    require(_winner.send(address(this).balance));\n  }\n\n  modifier validEntry() {\n    require(participants.length>0, \"Session not started for the next pool.\");\n    require(msg.value > entryFee, \"Not enough for even 1 entry\");\n    _;\n  }\n  function newEntry() public payable validEntry{\n    uint x = msg.value/entryFee;\n    uint i;\n    for(i = 0; i < x; i++){\n        participants.push(payable(msg.sender));\n    }\n  }\n\n\n  function random() public view returns(uint){\n    return uint(keccak256(abi.encodePacked(block.difficulty, block.timestamp, participants)))%participants.length;\n  }\n  function getParticipants() public view returns(uint){\n    return participants.length;\n  }\n}",
  "sourcePath": "/Users/jessegreenough/Documents/Personal_Coding_2022_2023/Learning/Solidity/Crypto_Lottery/Lottery_Contract/contracts/CryptoLottery.sol",
  "compiler": {
    "name": "solc",
    "version": "0.8.17+commit.8df45f5f.Emscripten.clang"
  },
  "schemaVersion": "3.4.11",
  "updatedAt": "2023-01-12T10:15:31.499Z",
  "devdoc": {
    "kind": "dev",
    "methods": {},
    "version": 1
  },
  "userdoc": {
    "kind": "user",
    "methods": {},
    "version": 1
  }
}