{
  "_format": "hh-sol-artifact-1",
  "contractName": "BuyMeACoffee",
  "sourceName": "contracts/BuyMeACoffee.sol",
  "abi": [
    {
      "inputs": [],
      "stateMutability": "nonpayable",
      "type": "constructor"
    },
    {
      "anonymous": false,
      "inputs": [
        {
          "components": [
            {
              "internalType": "address",
              "name": "from",
              "type": "address"
            },
            {
              "internalType": "uint256",
              "name": "timestamp",
              "type": "uint256"
            },
            {
              "internalType": "string",
              "name": "name",
              "type": "string"
            },
            {
              "internalType": "string",
              "name": "message",
              "type": "string"
            }
          ],
          "indexed": false,
          "internalType": "struct BuyMeACoffee.Memo",
          "name": "",
          "type": "tuple"
        }
      ],
      "name": "NewMemo",
      "type": "event"
    },
    {
      "inputs": [
        {
          "internalType": "string",
          "name": "_name",
          "type": "string"
        },
        {
          "internalType": "string",
          "name": "_message",
          "type": "string"
        }
      ],
      "name": "buyCoffee",
      "outputs": [],
      "stateMutability": "payable",
      "type": "function"
    },
    {
      "inputs": [],
      "name": "getMemos",
      "outputs": [
        {
          "components": [
            {
              "internalType": "address",
              "name": "from",
              "type": "address"
            },
            {
              "internalType": "uint256",
              "name": "timestamp",
              "type": "uint256"
            },
            {
              "internalType": "string",
              "name": "name",
              "type": "string"
            },
            {
              "internalType": "string",
              "name": "message",
              "type": "string"
            }
          ],
          "internalType": "struct BuyMeACoffee.Memo[]",
          "name": "",
          "type": "tuple[]"
        }
      ],
      "stateMutability": "view",
      "type": "function"
    },
    {
      "inputs": [],
      "name": "withdrawTips",
      "outputs": [],
      "stateMutability": "nonpayable",
      "type": "function"
    }
  ],
  "bytecode": "0x608060405234801561001057600080fd5b5033600160006101000a81548173ffffffffffffffffffffffffffffffffffffffff021916908373ffffffffffffffffffffffffffffffffffffffff160217905550610e74806100616000396000f3fe6080604052600436106100345760003560e01c8063204206e1146100395780633aaa74b214610055578063865c51721461006c575b600080fd5b610053600480360381019061004e9190610621565b610097565b005b34801561006157600080fd5b5061006a610228565b005b34801561007857600080fd5b506100816102e4565b60405161008e919061089e565b60405180910390f35b600034116100da576040517f08c379a00000000000000000000000000000000000000000000000000000000081526004016100d19061091d565b60405180910390fd5b600060405180608001604052803373ffffffffffffffffffffffffffffffffffffffff16815260200142815260200184815260200183815250908060018154018082558091505060019003906000526020600020906004020160009091909190915060008201518160000160006101000a81548173ffffffffffffffffffffffffffffffffffffffff021916908373ffffffffffffffffffffffffffffffffffffffff1602179055506020820151816001015560408201518160020190816101a29190610b49565b5060608201518160030190816101b89190610b49565b5050507f97931099b0ed6e92622a14838781b7c1d5024a96f70d0d7fcfb36da23c8af40e600060016000805490506101f09190610c4a565b8154811061020157610200610c7e565b5b906000526020600020906004020160405161021c9190610e1c565b60405180910390a15050565b600160009054906101000a900473ffffffffffffffffffffffffffffffffffffffff1673ffffffffffffffffffffffffffffffffffffffff163373ffffffffffffffffffffffffffffffffffffffff161461028257600080fd5b600160009054906101000a900473ffffffffffffffffffffffffffffffffffffffff1673ffffffffffffffffffffffffffffffffffffffff166108fc479081150290604051600060405180830381858888f193505050506102e257600080fd5b565b60606000805480602002602001604051908101604052809291908181526020016000905b828210156104be57838290600052602060002090600402016040518060800160405290816000820160009054906101000a900473ffffffffffffffffffffffffffffffffffffffff1673ffffffffffffffffffffffffffffffffffffffff1673ffffffffffffffffffffffffffffffffffffffff1681526020016001820154815260200160028201805461039b9061096c565b80601f01602080910402602001604051908101604052809291908181526020018280546103c79061096c565b80156104145780601f106103e957610100808354040283529160200191610414565b820191906000526020600020905b8154815290600101906020018083116103f757829003601f168201915b5050505050815260200160038201805461042d9061096c565b80601f01602080910402602001604051908101604052809291908181526020018280546104599061096c565b80156104a65780601f1061047b576101008083540402835291602001916104a6565b820191906000526020600020905b81548152906001019060200180831161048957829003601f168201915b50505050508152505081526020019060010190610308565b50505050905090565b6000604051905090565b600080fd5b600080fd5b600080fd5b600080fd5b6000601f19601f8301169050919050565b7f4e487b7100000000000000000000000000000000000000000000000000000000600052604160045260246000fd5b61052e826104e5565b810181811067ffffffffffffffff8211171561054d5761054c6104f6565b5b80604052505050565b60006105606104c7565b905061056c8282610525565b919050565b600067ffffffffffffffff82111561058c5761058b6104f6565b5b610595826104e5565b9050602081019050919050565b82818337600083830152505050565b60006105c46105bf84610571565b610556565b9050828152602081018484840111156105e0576105df6104e0565b5b6105eb8482856105a2565b509392505050565b600082601f830112610608576106076104db565b5b81356106188482602086016105b1565b91505092915050565b60008060408385031215610638576106376104d1565b5b600083013567ffffffffffffffff811115610656576106556104d6565b5b610662858286016105f3565b925050602083013567ffffffffffffffff811115610683576106826104d6565b5b61068f858286016105f3565b9150509250929050565b600081519050919050565b600082825260208201905092915050565b6000819050602082019050919050565b600073ffffffffffffffffffffffffffffffffffffffff82169050919050565b60006106f0826106c5565b9050919050565b610700816106e5565b82525050565b6000819050919050565b61071981610706565b82525050565b600081519050919050565b600082825260208201905092915050565b60005b8381101561075957808201518184015260208101905061073e565b60008484015250505050565b60006107708261071f565b61077a818561072a565b935061078a81856020860161073b565b610793816104e5565b840191505092915050565b60006080830160008301516107b660008601826106f7565b5060208301516107c96020860182610710565b50604083015184820360408601526107e18282610765565b915050606083015184820360608601526107fb8282610765565b9150508091505092915050565b6000610814838361079e565b905092915050565b6000602082019050919050565b600061083482610699565b61083e81856106a4565b935083602082028501610850856106b5565b8060005b8581101561088c578484038952815161086d8582610808565b94506108788361081c565b925060208a01995050600181019050610854565b50829750879550505050505092915050565b600060208201905081810360008301526108b88184610829565b905092915050565b600082825260208201905092915050565b7f43616e277420627579206120636f666665652077697468206e6f7468696e6721600082015250565b60006109076020836108c0565b9150610912826108d1565b602082019050919050565b60006020820190508181036000830152610936816108fa565b9050919050565b7f4e487b7100000000000000000000000000000000000000000000000000000000600052602260045260246000fd5b6000600282049050600182168061098457607f821691505b6020821081036109975761099661093d565b5b50919050565b60008190508160005260206000209050919050565b60006020601f8301049050919050565b600082821b905092915050565b6000600883026109ff7fffffffffffffffffffffffffffffffffffffffffffffffffffffffffffffffff826109c2565b610a0986836109c2565b95508019841693508086168417925050509392505050565b6000819050919050565b6000610a46610a41610a3c84610706565b610a21565b610706565b9050919050565b6000819050919050565b610a6083610a2b565b610a74610a6c82610a4d565b8484546109cf565b825550505050565b600090565b610a89610a7c565b610a94818484610a57565b505050565b5b81811015610ab857610aad600082610a81565b600181019050610a9a565b5050565b601f821115610afd57610ace8161099d565b610ad7846109b2565b81016020851015610ae6578190505b610afa610af2856109b2565b830182610a99565b50505b505050565b600082821c905092915050565b6000610b2060001984600802610b02565b1980831691505092915050565b6000610b398383610b0f565b9150826002028217905092915050565b610b528261071f565b67ffffffffffffffff811115610b6b57610b6a6104f6565b5b610b75825461096c565b610b80828285610abc565b600060209050601f831160018114610bb35760008415610ba1578287015190505b610bab8582610b2d565b865550610c13565b601f198416610bc18661099d565b60005b82811015610be957848901518255600182019150602085019450602081019050610bc4565b86831015610c065784890151610c02601f891682610b0f565b8355505b6001600288020188555050505b505050505050565b7f4e487b7100000000000000000000000000000000000000000000000000000000600052601160045260246000fd5b6000610c5582610706565b9150610c6083610706565b9250828203905081811115610c7857610c77610c1b565b5b92915050565b7f4e487b7100000000000000000000000000000000000000000000000000000000600052603260045260246000fd5b60008160001c9050919050565b600073ffffffffffffffffffffffffffffffffffffffff82169050919050565b6000610ced610ce883610cad565b610cba565b9050919050565b6000819050919050565b6000610d11610d0c83610cad565b610cf4565b9050919050565b60008154610d258161096c565b610d2f818661072a565b94506001821660008114610d4a5760018114610d6057610d93565b60ff198316865281151560200286019350610d93565b610d698561099d565b60005b83811015610d8b57815481890152600182019150602081019050610d6c565b808801955050505b50505092915050565b6000608083016000808401549050610db381610cda565b610dc060008701826106f7565b5060018401549050610dd181610cfe565b610dde6020870182610710565b50600284018583036040870152610df58382610d18565b925050600384018583036060870152610e0e8382610d18565b925050819250505092915050565b60006020820190508181036000830152610e368184610d9c565b90509291505056fea2646970667358221220b80db912943ec418f7be18904dbf16bcc9e4c12a46f6a5ab9e538714f27554c264736f6c63430008110033",
  "linkReferences": {},
  "deployedLinkReferences": {}
}